:040000000DEF00F010
:040008004EEF14F0B3
:06001800FF008AEF14F066
:1026000000FA2800642900022700000000000000F2
:10261000000000BE28000000000000000240000F83
:102620000000000EBE6E000EBF6E000EC06E020EE9
:10263000C16E000EC26E000EC36EC668C768DF0EA4
:10264000C86EFC0EC96E0F0ECA6ECB68040100691D
:102650000869C70E106FFC0E186F070E206F2869EF
:10266000000E016F000E096F000E116F000E196F42
:10267000000E216F000E296F000E026F000E0A6F10
:10268000000E126F000E1A6F000E226F000E2A6FDE
:1026900003690B6913691B69070E236F2B690469B2
:1026A0000C6914691C690F0E246F2C69000E02015D
:1026B000896F000E886F000E876F000E866F140EF4
:1026C0006B6F320E166F130E6A6F310E146F000EA1
:1026D0000401056F000E066F000E076F000E0D6FF0
:1026E000000E0E6F000E0F6F000E156F000E166FAE
:1026F000000E176F000E256F000E266F000E276F5D
:1027000012000B6E000184BF88EF13F08AEF13F004
:10271000ECEF13F00B50050D1C0EF324F66E260E95
:10272000F420F76EF86A000EF8220800F5C484F071
:102730000B50050D010EF326000EF4221C0EF3249F
:10274000F66E260EF420F76EF86A000EF8220800E6
:10275000F5C485F00B50050D020EF326000EF42291
:102760001C0EF324F66E260EF420F76EF86A000EA7
:10277000F8220800F5500309866F000E8C6F0B508D
:10278000050D030EF326000EF4221C0EF324F66E44
:10279000260EF420F76EF86A000EF8220800F5C441
:1027A00089F00B50050D040EF326000EF4221C0ECA
:1027B000F324F66E260EF420F76EF86A000EF82267
:1027C0000800F5C40AF50A460A460A46C8500A181F
:1027D000F70B0A18C86E848F120094EC14F07DEC8D
:1027E00014F00D68000E81EC13F0C1900D505FECF9
:1027F00014F0C180B2EC14F0C192000E0B6E640EA6
:102800000A6E36EC14F0C182010E0B6EF40E0A6EE5
:1028100036EC14F0C192010E0B6EF40E0A6E36EC1B
:1028200014F0C182F2EF13F00DEF00F0D69AAF90E2
:10283000D680000E0A6E000E0B6E000E0C6EABEC16
:1028400014F0B490D682000E0A6E000E0B6E000ECD
:102850000C6EA4EC14F0B890D684000E0A6E000E34
:102860000B6E000E0C6E9DEC14F0120040EF14F095
:10287000150E0C6EC60EE82EFED70C2EFCD700D01F
:102880000A06D8A00B060A2806E10B28D8A44BEFAD
:1028900014F04DEF14F038EF14F012009EAE53EF29
:1028A00014F055EF14F05EEF14F0AEAE5AEF14F0E2
:1028B0005CEF14F05EEF14F0B5EC14F011000A6E4A
:1028C000010E0001826F0AC581F0B1A06AEF14F019
:1028D0006CEF14F065EF14F0000180511200600EEF
:1028E0000001AD6F000EAF6F000EB36F080EB16F39
:1028F000000EB06F000EAC6F1200400E0001856F2D
:10290000000E866F010E8C6F0F0E896FC896020E37
:10291000846F12000401080E5D6F000E5E6F000EE2
:102920005F6F0001EDEF13F06FEC14F011EC13F09A
:102930007DEC14F016EC14F012000AC501F50BC57D
:1029400002F50CC503F512000AC504F50BC505F523
:102950000CC506F512000AC507F50BC508F50CC530
:0C29600009F512000001849F1200120013
:020000040030CA
:08000000FFFFF7FF9FFFFFFF68
:01000900FFF7
:00000001FF
