:040000000DEF00F010
:04000800C8EF35F018
:06001800FF00A6EF35F029
:1026000000EE6B00446C00F0680000000000000069
:10261000000000B26B00000000000000000000009D
:10262000DCCFD1350000000000C0153F0240000F94
:10263000006042A20D70A5EC363BAAB83F4F387639
:102640003F3CAA38338CBEBF350072313F1872311F
:102650003F4CBB31330EEADDB555B38A38610B36DA
:10266000BBABAA2A3E42F1533E55326C3E05A38BCA
:102670003EABAAAA3EB76DDB3E9A99193F6042A2D3
:102680000DCAF249710000804B0000803F0000C07D
:0F2690003F00AAB83FC623F6B80040763F0000CF
:1026A00084C5B8F685C5B9F686C5BAF687C5BBF642
:1026B000B8C660F6B9C661F6BAC662F6BBC663F6BE
:1026C00088C5B8F689C5B9F68AC5BAF68BC5BBF612
:1026D000B8C684F6B9C685F6BAC686F6BBC687F60E
:1026E000FF0E06016015A86FFF0E6115A96FFF0EA2
:1026F0006215AA6F7F0E6315AB6FFF0E8415986F7E
:10270000FF0E8515996FFF0E86159A6F7F0E871540
:102710009B6F985199119A119B11D8A492EF13F0C5
:1027200094EF13F09FEF13F0000E0501846F000E7D
:10273000856F800E866F3F0E876FDBEF27F0800E70
:10274000621909E13F0E631960116111D8A4ABEF62
:1027500013F0ADEF13F0B8EF13F0000E0501846F26
:10276000000E856F800E866F3F0E876FDBEF27F0C0
:10277000ABBFC9EF13F0A805000EA959800EAA59E6
:102780007F0EAB59D8B0C7EF13F0C9EF13F0DAEFF3
:1027900013F09BBFD8EF13F09805000E9959800EE7
:1027A0009A597F0E9B59D8A0D8EF13F0DAEF13F0A7
:1027B000F6EF13F084C501F585C502F586C503F56E
:1027C00087C504F588C505F589C506F58AC507F5E9
:1027D0008BC508F53CEC2AF001C584F502C585F5EA
:1027E00003C586F504C587F5DBEF27F0000E506FB3
:1027F000000E516F000E526F000E536F63BF05EF56
:1028000014F003EF14F0B0EF14F09BBF11EF14F0CD
:10281000800E9A5D4B0E9B59D8A011EF14F013EF68
:1028200014F01DEF14F0020E506F000E516F000EE9
:10283000526F000E536FB0EF14F09BBF29EF14F0EE
:10284000800E9A5D3F0E9B59D8A029EF14F02BEF14
:1028500014F0B0EF14F0170E4B6E98C64CF599C6F5
:102860004DF59AC64EF59BC64FF54B663AEF14F000
:1028700042EF14F04F344F324E324D324C324B2E29
:1028800035EF14F0810E4C240601A06FFF0E4D2091
:10289000A16FFF0E4E20A26FFF0E4F20A36FA0511D
:1028A00017084B6E98C64CF599C64DF59AC64EF56D
:1028B0009BC64FF54B665FEF14F067EF14F04F3493
:1028C0004F324E324D324C324B2E5AEF14F04CC533
:1028D000ACF64DC5ADF64EC5AEF64FC5AFF606012A
:1028E000A05117084B6EACC64CF5ADC64DF5AEC643
:1028F0004EF5AFC64FF54B2A83EF14F0D8904C3607
:102900004D364E364F364B2E7EEF14F098514C1804
:102910000DE199514D180AE19A514E1807E19B516A
:102920004F18D8A496EF14F098EF14F0B0EF14F00D
:10293000010EAC154B6E000EAD154C6E000EAE15B3
:102940004D6E000EAF154E6E4B500208506F000ECC
:102950004C54516F000E4D54526F000E4E54536F35
:10296000800E9A1909E17F0E9B1998119911D8A42C
:10297000BCEF14F0BEEF14F02AEF15F0800EAA1988
:1029800009E13F0EAB19A811A911D8A4CAEF14F0A0
:10299000CCEF14F0D7EF14F0000E0501846F000E99
:1029A000856F800E866F3F0E876FDBEF27F0ABBF22
:1029B000E6EF14F0A805000EA959800EAA593F0EA3
:1029C000AB59D8A0E6EF14F0E8EF14F004EF15F0DF
:1029D00087BFEFEF14F0EDEF14F0FAEF14F0000EF4
:1029E0000501846F000E856F000E866F000E876FE5
:1029F000DBEF27F088C584F589C585F58AC586F59E
:102A00008BC587F5DBEF27F087BF0BEF15F009EFDC
:102A100015F01FEF15F088C501F589C502F58AC5C7
:102A200003F58BC504F558EC35F001C584F502C5F6
:102A300085F503C586F504C587F5DBEF27F0000EA5
:102A40000501846F000E856F000E866F000E876F84
:102A5000DBEF27F0800E9A1909E13F0E9B199811C0
:102A60009911D8A436EF15F038EF15F065EF15F091
:102A700087BF3FEF15F03DEF15F05BEF15F0000E4F
:102A8000326E000E336E800E346E3F0E356E84C58E
:102A900036F585C537F586C538F587C539F5B1EC06
:102AA0002EF032C584F533C585F534C586F535C5B8
:102AB00087F5DBEF27F084C584F585C585F586C5E8
:102AC00086F587C587F5DBEF27F0400E871984115F
:102AD00085118611D8A46FEF15F071EF15F08DEF09
:102AE00015F084C511F585C512F586C513F587C5A2
:102AF00014F584C515F585C516F586C517F587C582
:102B000018F59CEC2CF011C584F512C585F513C59C
:102B100086F514C587F5DBEF27F03F0E8719841182
:102B200085118611D8A497EF15F099EF15F0B4EF41
:102B300015F063BF9EEF15F0A0EF15F0B4EF15F0A0
:102B400084C53EF585C53FF586C540F587C541F589
:102B5000DCEC27F03EC584F53FC585F540C586F51C
:102B600041C587F5DBEF27F084C501F585C502F582
:102B700086C503F587C504F574EC35F001C570F61C
:102B800002C571F603C572F604C573F6800E060120
:102B9000AA190BE17F0EAB19A811A911D8B4D3EF74
:102BA00015F0D5EF15F0EEEF15F0A851A911AA1107
:102BB000AB11D8B4DEEF15F0E0EF15F0EEEF15F045
:102BC000800EAA1909E13F0EAB19A811A911D8A4CA
:102BD000ECEF15F0EEEF15F0ADEF16F070C6B4F6B1
:102BE00071C6B5F672C6B6F673C6B7F687BFFDEF07
:102BF00015F0FBEF15F017EF16F0000E326E000E19
:102C0000336E800E346E3F0E356EB4C636F5B5C6E3
:102C100037F5B6C638F5B7C639F5B1EC2EF032C582
:102C2000B4F633C5B5F634C5B6F635C5B7F6060104
:102C300063BF1FEF16F01DEF16F0A3EF16F0000EA6
:102C4000A8254B6E000EA9214C6E800EAA214D6E58
:102C5000C00EAB214E6E50514B104F6E51514C1067
:102C6000506E52514D10516E53514E10526E4F5086
:102C7000501051105210D8A440EF16F042EF16F049
:102C800086EF16F0000E5E6E210E5D6EB4C62EF558
:102C9000B5C62FF5B6C630F5B7C631F5B4C62AF5B8
:102CA000B5C62BF5B6C62CF5B7C62DF515EC35F027
:102CB0002AC532F52BC533F52CC534F52DC535F5B0
:102CC000B4C62EF5B5C62FF5B6C630F5B7C631F584
:102CD000B4C62AF5B5C62BF5B6C62CF5B7C62DF584
:102CE00015EC35F02AC536F52BC537F52CC538F56A
:102CF0002DC539F5B1EC2EF032C5B4F633C5B5F6B5
:102D000034C5B6F635C5B7F6A3EF16F05005511128
:102D100052115311D8A48FEF16F091EF16F0A3EFD4
:102D200016F0B4C601F5B5C602F5B6C603F5B7C6CA
:102D300004F558EC35F001C5B4F602C5B5F603C587
:102D4000B6F604C5B7F6B4C684F5B5C685F5B6C6FD
:102D500086F5B7C687F5DBEF27F0000E886F000E0B
:102D6000896F800E8A6F3F0E8B6F63BFBCEF16F0CA
:102D7000BAEF16F01EEF17F05051511152115311C6
:102D8000D8A4C5EF16F0C7EF16F00BEF17F0000E42
:102D90005E6E210E5D6E84C52EF585C52FF586C548
:102DA00030F587C531F584C52AF585C52BF586C56F
:102DB0002CF587C52DF515EC35F02AC532F52BC558
:102DC00033F52CC534F52DC535F584C52EF585C5EF
:102DD0002FF586C530F587C531F584C52AF585C53B
:102DE0002BF586C52CF587C52DF515EC35F02AC5D4
:102DF00036F52BC537F52CC538F52DC539F5B1ECB1
:102E00002EF032C584F533C585F534C586F535C554
:102E100087F5DBEF27F05005511152115311D8A45B
:102E200014EF17F016EF17F01EEF17F0000E886F73
:102E3000000E896F800E8A6FBF0E8B6F9BBF2DEFC8
:102E400017F09805000E9959000E9A594D0E9B598E
:102E5000D8A02DEF17F02FEF17F0B4EF19F0ABBF9C
:102E600041EF17F0F80EA85DFF0EA9597F0EAA5981
:102E70003F0EAB59D8B03FEF17F041EF17F0B4EF6A
:102E800017F087BF46EF17F048EF17F07EEF17F007
:102E9000600E156E420E166EA20E176E0D0E186E97
:102EA00088C611F589C612F58AC613F58BC614F5C6
:102EB0009CEC2CF011C5A4F612C5A5F613C5A6F618
:102EC00014C5A7F6A4C611F5A5C612F5A6C613F536
:102ED000A7C614F5600E156E420E166EA20E176E82
:102EE0000D0E186E9CEC2CF011C584F512C585F5FD
:102EF00013C586F514C587F5DBEF27F0CA0E156EEE
:102F0000F20E166E490E176E710E186E88C611F508
:102F100089C612F58AC613F58BC614F59CEC2CF005
:102F200011C5A4F612C5A5F613C5A6F614C5A7F6D5
:102F3000A4C611F5A5C612F5A6C613F5A7C614F5C5
:102F4000CA0E156EF20E166E490E176E710E186EC1
:102F50009CEC2CF011C584F512C585F513C586F5DA
:102F600014C587F5DBEF27F0ABBFC4EF17F0080EF1
:102F7000A85D000EA959800EAA593F0EAB59D8A0E2
:102F8000C4EF17F0C6EF17F041EF18F087BFD5EF89
:102F900017F087518611851106E18405D8B0D3EF6B
:102FA00017F0D5EF17F00BEF18F0600E156E420E0C
:102FB000166EA20E176E0D0E186E88C611F589C614
:102FC00012F58AC613F58BC614F59CEC2CF011C5CE
:102FD000A4F612C5A5F613C5A6F614C5A7F6A4C691
:102FE00011F5A5C612F5A6C613F5A7C614F5600E11
:102FF000156E420E166EA20E176E0D0E186E9CEC1C
:103000002CF011C584F512C585F513C586F514C5D8
:1030100087F5DBEF27F0CA0E156EF20E166E490E1D
:10302000176E710E186E88C611F589C612F58AC61C
:1030300013F58BC614F59CEC2CF011C5A4F612C543
:10304000A5F613C5A6F614C5A7F6A4C611F5A5C620
:1030500012F5A6C613F5A7C614F5CA0E156EF20E24
:10306000166E490E176E710E186E9CEC2CF011C581
:1030700084F512C585F513C586F514C587F5DBEF14
:1030800027F070C601F571C602F572C603F573C666
:1030900004F5000E056E000E066E800E076EBF0E64
:1030A000086E3CEC2AF001C5B0F602C5B1F603C5C6
:1030B000B2F604C5B3F6000E156E000E166E800E45
:1030C000176E3E0E186EB0C611F5B1C612F5B2C637
:1030D00013F5B3C614F59CEC2CF011C52EF512C5F2
:1030E0002FF513C530F514C531F5AB0E2A6EAA0EB7
:1030F0002B6EAA0E2C6E3E0E2D6E15EC35F02AC5E9
:10310000A4F62BC5A5F62CC5A6F62DC5A7F6B0C608
:1031100015F5B1C616F5B2C617F5B3C618F5B0C6A3
:1031200011F5B1C612F5B2C613F5B3C614F59CEC91
:103130002CF011C554F612C555F613C556F614C534
:1031400057F6B0C615F5B1C616F5B2C617F5B3C633
:1031500018F5A4C611F5A5C612F5A6C613F5A7C69F
:1031600014F59CEC2CF011C52EF512C52FF513C5E6
:1031700030F514C531F5000E2A6E000E2B6E000ED0
:103180002C6E3F0E2D6E15EC35F02AC548F62BC57A
:1031900049F62CC54AF62DC54BF654C611F555C651
:1031A00012F556C613F557C614F548C615F549C6A7
:1031B00016F54AC617F54BC618F59CEC2CF011C550
:1031C00044F612C545F613C546F614C547F6B0C613
:1031D00011F5B1C612F5B2C613F5B3C614F5000E5B
:1031E000156EAA0E166EB80E176E3F0E186E9CEC7A
:1031F0002CF011C574F612C575F613C576F614C514
:1032000077F6700E156EA50E166EEC0E176E360E56
:10321000186EB0C611F5B1C612F5B2C613F5B3C635
:1032200014F59CEC2CF011C52AF512C52BF513C52D
:103230002CF514C52DF53B0E156EAA0E166EB80EA4
:10324000176E3F0E186E44C611F545C612F546C6F8
:1032500013F547C614F59CEC2CF011C52EF512C5DC
:103260002FF513C530F514C531F515EC35F02AC529
:1032700078F62BC579F62CC57AF62DC57BF674C683
:1032800001F575C602F576C603F577C604F578C66E
:1032900005F579C606F57AC607F57BC608F53CEC58
:1032A0002AF001C580F602C581F603C582F604C581
:1032B00083F680C6B8F681C6B9F682C6BAF683C66A
:1032C000BBF6B8C690F6B9C691F6BAC692F6BBC6BA
:1032D00093F6000E06019015B86FF00E9115B96FB8
:1032E000FF0E9215BA6FFF0E9315BB6FB8C680F62E
:1032F000B9C681F6BAC682F6BBC683F674C62EF589
:1033000075C62FF576C630F577C631F580C62AF535
:1033100081C62BF582C62CF583C62DF515EC35F04C
:103320002AC594F62BC595F62CC596F62DC597F6AD
:1033300078C62AF579C62BF57AC62CF57BC62DF50D
:1033400094C62EF595C62FF596C630F597C631F57D
:1033500015EC35F02AC51CF62BC51DF62CC51EF63E
:103360002DC51FF60EEF21F0000E7C6F000E7D6F55
:10337000000E7E6F000E7F6FABBFCAEF19F0AB512E
:1033800007E1800EAA5DD8B0C8EF19F0CAEF19F0B6
:10339000FDEF19F070C611F571C612F572C613F57E
:1033A00073C614F5000E156E000E166E800E176EA5
:1033B0004B0E186E9CEC2CF011C570F612C571F610
:1033C00013C572F614C573F6E80E06017C27FF0ECE
:1033D0007D23FF0E7E23FF0E7F2370C6B8F671C6D5
:1033E000B9F672C6BAF673C6BBF6B8C6A8F6B9C6C1
:1033F000A9F6BAC6AAF6BBC6ABF6170E4B6EA8C6A0
:103400004CF5A9C64DF5AAC64EF5ABC64FF54B66B1
:103410000CEF1AF014EF1AF04F344F324E324D3297
:103420004C324B2E07EF1AF0810E4C24506EFF0EDB
:103430004D20516EFF0E4E20526EFF0E4F20536EE8
:10344000505006017C2751507D2352507E2353500B
:103450007F23FF0EA815AC6FFF0EA915AD6F7F0E71
:10346000AA15AE6F000EAB15AF6F000EAC11A86FB2
:10347000000EAD11A96F800EAE11AA6F3F0EAF11F5
:10348000AB6FAFBF53EF1AF0AF510BE1720EAC5DF3
:10349000C40EAD591C0EAE59D8B051EF1AF053EF0F
:1034A0001AF05DEF1AF0000EA06F000EA16F000E73
:1034B000A26F000EA36F8FEF1AF0AFBF6FEF1AF07D
:1034C000AF510BE1D70EAC5DB30EAD595D0EAE59E9
:1034D000D8B06DEF1AF06FEF1AF079EF1AF0010E15
:1034E000A06F000EA16F000EA26F000EA36F8FEFF2
:1034F0001AF0000EA06F000EA16F000EA26F000E5A
:10350000A36F010E7C27000E7D237E237F23000EF8
:10351000A827000EA923800EAA23FF0EAB23A8C65E
:10352000B8F6A9C6B9F6AAC6BAF6ABC6BBF6B8C60F
:1035300070F6B9C671F6BAC672F6BBC673F670C637
:103540002AF571C62BF572C62CF573C62DF5A0C6EB
:103550004BF5A1C64CF5D8904B364C36D8904B362F
:103560004C36890E4B24F66E260E4C20F76EF86A08
:10357000000EF8220900F5C42EF50900F5C42FF558
:103580000900F5C430F50A00F5C431F515EC35F045
:103590002AC574F62BC575F62CC576F62DC577F6BB
:1035A000000E326E000E336E800E346E3F0E356E9E
:1035B00070C605F571C606F572C607F573C608F53F
:1035C000A0C64BF5A1C64CF5D8904B364C36D890DA
:1035D0004B364C36890E4B24F66E260E4C20F76E79
:1035E000F86A000EF8220900F5C401F50900F5C4D7
:1035F00002F50900F5C403F50A00F5C404F53CEC36
:103600002AF001C536F502C537F503C538F504C5FE
:1036100039F5B1EC2EF032C578F633C579F634C5FC
:103620007AF635C57BF674C611F575C612F576C601
:1036300013F577C614F578C615F579C616F57AC66A
:1036400017F57BC618F59CEC2CF011C55CF612C57D
:103650005DF613C55EF614C55FF65CC66CF65DC616
:103660006DF65EC66EF65FC66FF66CC6B8F66DC6D2
:10367000B9F66EC6BAF66FC6BBF6B8C690F6B9C64E
:1036800091F6BAC692F6BBC693F6000E06019015E7
:10369000B86FF00E9115B96FFF0E9215BA6FFF0E4D
:1036A0009315BB6FB8C66CF6B9C66DF6BAC66EF6A2
:1036B000BBC66FF6A8C64BF5A9C64CF5AAC64DF514
:1036C000ABC64EF54E344E324D324C324B32000EBC
:1036D0004B144F6EF00E4C14506EFF0E4D14516E85
:1036E000FF0E4E14526E000E4F10906F000E5010D1
:1036F000916F000E5110926F200E5210936FA0C662
:103700004BF5A1C64CF5A2C64DF5A3C64EF5150E58
:10371000D8904B364C364D364E36E82E88EF1BF09F
:1037200090514B244F6E91514C20506E92514D2030
:10373000516E93514E20526E000E4F24B86F000E02
:103740005020B96F400E5120BA6F000E5220BB6F4F
:10375000B8C668F6B9C669F6BAC66AF6BBC66BF6ED
:10376000A0C64BF5A1C64CF5D8904B364C36D89038
:103770004B364C36890E4B24F66E260E4C20F76ED7
:10378000F86A000EF8220900F5C42EF50900F5C408
:103790002FF50900F5C430F50A00F5C431F568C607
:1037A0002AF569C62BF56AC62CF56BC62DF515EC06
:1037B00035F02AC594F62BC595F62CC596F62DC581
:1037C00097F670C62AF571C62BF572C62CF573C62E
:1037D0002DF594C62EF595C62FF596C630F597C6ED
:1037E00031F515EC35F02AC534F62BC535F62CC568
:1037F00036F62DC537F668C615F569C616F56AC6DC
:1038000017F56BC618F56CC611F56DC612F56EC6C8
:1038100013F56FC614F59CEC2CF011C52EF512C5EE
:103820002FF513C530F514C531F574C62AF575C6E4
:103830002BF576C62CF577C62DF515EC35F02AC597
:1038400094F62BC595F62CC596F62DC597F634C67D
:1038500015F535C616F536C617F537C618F56CC614
:1038600011F56DC612F56EC613F56FC614F59CEC16
:103870002CF011C52EF512C52FF513C530F514C562
:1038800031F594C62AF595C62BF596C62CF597C644
:103890002DF515EC35F02AC554F62BC555F62CC57B
:1038A00056F62DC557F654C611F555C612F556C62F
:1038B00013F557C614F578C615F579C616F57AC608
:1038C00017F57BC618F59CEC2CF011C530F612C527
:1038D00031F613C532F614C533F65CC611F55DC674
:1038E00012F55EC613F55FC614F55CC615F55DC628
:1038F00016F55EC617F55FC618F59CEC2CF011C5E1
:103900008CF612C58DF613C58EF614C58FF6550EBE
:10391000056E320E066E6C0E076E3E0E086E420E7F
:10392000156EF10E166E530E176E3E0E186E8CC687
:1039300011F58DC612F58EC613F58FC614F59CECE5
:103940002CF011C501F512C502F513C503F514C518
:1039500004F53CEC2AF001C5A4F602C5A5F603C5A2
:10396000A6F604C5A7F6050E056EA30E066E8B0E11
:10397000076E3E0E086E8CC615F58DC616F58EC602
:1039800017F58FC618F5A4C611F5A5C612F5A6C67B
:1039900013F5A7C614F59CEC2CF011C501F512C562
:1039A00002F513C503F514C504F53CEC2AF001C576
:1039B00054F602C555F603C556F604C557F6AB0EC8
:1039C000056EAA0E066EAA0E076E3E0E086E8CC617
:1039D00015F58DC616F58EC617F58FC618F554C6A3
:1039E00011F555C612F556C613F557C614F59CECDD
:1039F0002CF011C501F512C502F513C503F514C568
:103A000004F53CEC2AF001C548F602C549F603C5A9
:103A10004AF604C54BF6B70E056E6D0E066EDB0E4C
:103A2000076E3E0E086E8CC615F58DC616F58EC651
:103A300017F58FC618F548C611F549C612F54AC6DE
:103A400013F54BC614F59CEC2CF011C501F512C50D
:103A500002F513C503F514C504F53CEC2AF001C5C5
:103A600038F602C539F603C53AF604C53BF69A0E98
:103A7000056E990E066E190E076E3F0E086E8CC607
:103A800015F58DC616F58EC617F58FC618F538C60E
:103A900011F539C612F53AC613F53BC614F59CEC80
:103AA0002CF011C501F512C502F513C503F514C5B7
:103AB00004F53CEC2AF001C500F602C501F603C589
:103AC00002F604C503F68CC615F58DC616F58EC62E
:103AD00017F58FC618F58CC611F58DC612F58EC672
:103AE00013F58FC614F59CEC2CF011C504F612C525
:103AF00005F613C506F614C507F600C611F501C68E
:103B000012F502C613F503C614F504C615F505C66D
:103B100016F506C617F507C618F59CEC2CF011C56E
:103B20004CF612C54DF613C54EF614C54FF630C609
:103B300015F531C616F532C617F533C618F55CC64D
:103B400005F55DC606F55EC607F55FC608F56CC6E9
:103B500001F56DC602F56EC603F56FC604F53CECC3
:103B60002AF001C511F502C512F503C513F504C508
:103B700014F59CEC2CF011C558F612C559F613C576
:103B80005AF614C55BF64CC601F54DC602F54EC695
:103B900003F54FC604F558C605F559C606F55AC6CD
:103BA00007F55BC608F53CEC2AF001C54CF602C5EA
:103BB0004DF603C54EF604C54FF66CC611F56DC63D
:103BC00012F56EC613F56FC614F56CC615F56DC605
:103BD00016F56EC617F56FC618F59CEC2CF011C5DE
:103BE0008CF612C58DF613C58EF614C58FF6000E31
:103BF000056E000E066E400E076E400E086E8CC6F7
:103C000001F58DC602F58EC603F58FC604F53CECB2
:103C10002AF001C558F602C559F603C55AF604C57F
:103C20005BF658C601F559C602F55AC603F55BC6E0
:103C300004F54CC605F54DC606F54EC607F54FC64C
:103C400008F53CEC2AF001C568F602C569F603C523
:103C50006AF604C56BF668C6B8F669C6B9F66AC6F0
:103C6000BAF66BC6BBF6B8C690F6B9C691F6BAC638
:103C700092F6BBC693F6000E06019015B86FF00ED3
:103C80009115B96FFF0E9215BA6FFF0E9315BB6FAA
:103C9000B8C668F6B9C669F6BAC66AF6BBC66BF6A8
:103CA000000E056E000E066E400E076EC00E086E0A
:103CB00068C601F569C602F56AC603F56BC604F568
:103CC0003CEC2AF001C53CF602C53DF603C53EF6C4
:103CD00004C53FF68CC62EF58DC62FF58EC630F581
:103CE0008FC631F53CC62AF53DC62BF53EC62CF5F0
:103CF0003FC62DF515EC35F02AC540F62BC541F62B
:103D00002CC542F62DC543F64CC62AF54DC62BF5FB
:103D10004EC62CF54FC62DF540C62EF541C62FF5E3
:103D200042C630F543C631F515EC35F02AC534F6F8
:103D30002BC535F62CC536F62DC537F66CC611F5F4
:103D40006DC612F56EC613F56FC614F568C615F587
:103D500069C616F56AC617F56BC618F59CEC2CF00B
:103D600011C574F612C575F613C576F614C577F647
:103D700068C615F569C616F56AC617F56BC618F557
:103D800030C611F531C612F532C613F533C614F537
:103D90009CEC2CF011C501F512C502F513C503F515
:103DA00014C504F55CC615F55DC616F55EC617F5B7
:103DB0005FC618F534C611F535C612F536C613F5CB
:103DC00037C614F59CEC2CF011C505F512C506F5A7
:103DD00013C507F514C508F53CEC2AF001C578F6C3
:103DE00002C579F603C57AF604C57BF674C601F5FB
:103DF00075C602F576C603F577C604F578C605F5EF
:103E000079C606F57AC607F57BC608F53CEC2AF0BC
:103E100001C59CF602C59DF603C59EF604C59FF636
:103E20009CC6B8F69DC6B9F69EC6BAF69FC6BBF646
:103E3000B8C690F6B9C691F6BAC692F6BBC693F666
:103E4000000E06019015B86FF00E9115B96FFF0EB8
:103E50009215BA6FFF0E9315BB6FB8C69CF6B9C624
:103E60009DF6BAC69EF6BBC69FF674C62EF575C6FD
:103E70002FF576C630F577C631F59CC62AF59DC676
:103E80002BF59EC62CF59FC62DF515EC35F02AC5F1
:103E900094F62BC595F62CC596F62DC597F678C6E3
:103EA0002AF579C62BF57AC62CF57BC62DF594C676
:103EB0002EF595C62FF596C630F597C631F515EC5B
:103EC00035F02AC564F62BC565F62CC566F62DC5FA
:103ED00067F69CC611F59DC612F59EC613F59FC6E2
:103EE00014F5000E156E400E166E760E176E3F0E10
:103EF000186E9CEC2CF011C520F612C521F613C5E6
:103F000022F614C523F64F0E156E380E166E760E79
:103F1000176E3F0E186E64C611F565C612F566C6BB
:103F200013F567C614F59CEC2CF011C505F512C508
:103F300006F513C507F514C508F5C60E156E230E54
:103F4000166EF60E176EB80E186E9CC611F59DC64D
:103F500012F59EC613F59FC614F59CEC2CF011C506
:103F600001F512C502F513C503F514C504F53CECC3
:103F70002AF001C558F602C559F603C55AF604C51C
:103F80005BF658C601F559C602F55AC603F55BC67D
:103F900004F5A0C64BF5A1C64CF5D8904B364C366F
:103FA000D8904B364C361C0E4B24F66E260E4C2009
:103FB000F76EF86A000EF8220900F5C405F509004D
:103FC000F5C406F50900F5C407F50A00F5C408F5BF
:103FD0003CEC2AF001C524F602C525F603C526F6F9
:103FE00004C527F67CC601F57DC602F57EC603F53D
:103FF0007FC604F5010E98EC31F001C5B0F602C59C
:10400000B1F603C5B2F604C5B3F624C605F525C658
:1040100006F526C607F527C608F520C601F521C610
:1040200002F522C603F523C604F53CEC2AF001C5CF
:1040300058F602C559F603C55AF604C55BF6A0C684
:104040004BF5A1C64CF5D8904B364C36D8904B3634
:104050004C36240E4B24F66E260E4C20F76EF86A72
:10406000000EF8220900F5C405F50900F5C406F5AF
:104070000900F5C407F50A00F5C408F558C601F5AE
:1040800059C602F55AC603F55BC604F53CEC2AF0A6
:1040900001C508F602C509F603C50AF604C50BF604
:1040A00008C601F509C602F50AC603F50BC604F5F4
:1040B000B0C605F5B1C606F5B2C607F5B3C608F534
:1040C0003CEC2AF001C580F602C581F603C582F6F4
:1040D00004C583F680C6B8F681C6B9F682C6BAF6BC
:1040E00083C6BBF6B8C690F6B9C691F6BAC692F6C4
:1040F000BBC693F6000E06019015B86FF00E911531
:10410000B96FFF0E9215BA6FFF0E9315BB6FB8C64D
:1041100080F6B9C681F6BAC682F6BBC683F6B0C6CB
:104120002EF5B1C62FF5B2C630F5B3C631F580C64F
:104130002AF581C62BF582C62CF583C62DF515EC24
:1041400035F02AC594F62BC595F62CC596F62DC5E7
:1041500097F6A0C64BF5A1C64CF5D8904B364C3619
:10416000D8904B364C36240E4B24F66E260E4C203F
:10417000F76EF86A000EF8220900F5C42EF5090062
:10418000F5C42FF50900F5C430F50A00F5C431F582
:1041900094C62AF595C62BF596C62CF597C62DF52F
:1041A00015EC35F02AC540F62BC541F62CC542F674
:1041B0002DC543F620C62EF521C62FF522C630F5B3
:1041C00023C631F540C62AF541C62BF542C62CF56B
:1041D00043C62DF515EC35F02AC50CF62BC50DF6AA
:1041E0002CC50EF62DC50FF624C62AF525C62BF5CF
:1041F00026C62CF527C62DF50CC62EF50DC62FF5B7
:104200000EC630F50FC631F515EC35F02AC51CF693
:104210002BC51DF62CC51EF62DC51FF688C5B8F694
:1042200089C5B9F68AC5BAF68BC5BBF6B8C690F68D
:10423000B9C691F6BAC692F6BBC693F6000E060151
:104240009015B86FF00E9115B96FFF0E9215BA6FF9
:10425000FF0E9315BB6FB8C628F6B9C629F6BAC6C5
:104260002AF6BBC62BF680C615F581C616F582C6A2
:1042700017F583C618F528C62EF529C62FF52AC6C8
:1042800030F52BC631F588C52AF589C52BF58AC5C9
:104290002CF58BC52DF515EC35F02AC511F52BC580
:1042A00012F52CC513F52DC514F59CEC2CF011C599
:1042B00010F612C511F613C512F614C513F610C682
:1042C00001F511C602F512C603F513C604F51CC6A6
:1042D00015F51DC616F51EC617F51FC618F588C5B7
:1042E00011F589C512F58AC513F58BC514F59CEC3B
:1042F0002CF011C505F512C506F513C507F514C553
:1043000008F53CEC2AF001C564F602C565F603C564
:1043100066F604C567F628C611F529C612F52AC641
:1043200013F52BC614F580C615F581C616F582C6A1
:1043300017F583C618F59CEC2CF011C59CF612C538
:104340009DF613C59EF614C59FF664C601F565C6B5
:1043500002F566C603F567C604F59CC605F59DC65D
:1043600006F59EC607F59FC608F53CEC2AF001C588
:10437000B4F602C5B5F603C5B6F604C5B7F6B4C6BD
:10438000B8F6B5C6B9F6B6C6BAF6B7C6BBF6B8C67D
:10439000ACF6B9C6ADF6BAC6AEF6BBC6AFF6060108
:1043A000AFBFDFEF21F0AC05000EAD59000EAE59E6
:1043B000430EAF59D8A0DFEF21F0E1EF21F017EF66
:1043C00022F0CA0E156EF20E166E490E176E710EA1
:1043D000186E88C611F589C612F58AC613F58BC604
:1043E00014F59CEC2CF011C5A4F612C5A5F613C566
:1043F000A6F614C5A7F6A4C611F5A5C612F5A6C65D
:1044000013F5A7C614F5CA0E156EF20E166E490EF8
:10441000176E710E186E9CEC2CF011C584F512C548
:1044200085F513C586F514C587F5DBEF27F0430E38
:10443000AF19AC11AD11AE11D8A421EF22F023EFCA
:1044400022F096EF22F09CC62EF59DC62FF59EC653
:1044500030F59FC631F5B4C62AF5B5C62BF5B6C6FC
:104460002CF5B7C62DF515EC35F02AC532F52BC560
:1044700033F52CC534F52DC535F53C0E056EAA0E69
:10448000066E380E076E330E086E64C601F565C6FB
:1044900002F566C603F567C604F53CEC2AF001C5D3
:1044A00036F502C537F503C538F504C539F585EC91
:1044B00033F0D8B05EEF22F060EF22F058EF23F037
:1044C000CA0E156EF20E166E490E176E710E186E2C
:1044D00088C611F589C612F58AC613F58BC614F580
:1044E0009CEC2CF011C5A4F612C5A5F613C5A6F6D2
:1044F00014C5A7F6A4C611F5A5C612F5A6C613F5F0
:10450000A7C614F5CA0E156EF20E166E490E176E7A
:10451000710E186E9CEC2CF011C584F512C585F552
:1045200013C586F514C587F5DBEF27F0FF0EAC1534
:104530004B6EFF0EAD154C6EFF0EAE154D6E7F0E21
:10454000AF154E6E4EBEB1EF22F04B04000E4C582C
:10455000160E4D58430E4E58D8A0B1EF22F0B3EFCF
:1045600022F0E9EF22F0600E156E420E166EA20EDA
:10457000176E0D0E186E88C611F589C612F58AC61B
:1045800013F58BC614F59CEC2CF011C5A4F612C5DE
:10459000A5F613C5A6F614C5A7F6A4C611F5A5C6BB
:1045A00012F5A6C613F5A7C614F5600E156E420ED9
:1045B000166EA20E176E0D0E186E9CEC2CF011C527
:1045C00084F512C585F513C586F514C587F5DBEFAF
:1045D00027F0160EAE1909E1C30EAF19AC11AD11DB
:1045E000D8A4F5EF22F0F7EF22F058EF23F09CC6A5
:1045F0002EF59DC62FF59EC630F59FC631F5B4C683
:104600002AF5B5C62BF5B6C62CF5B7C62DF515ECB3
:1046100035F02AC532F52BC533F52CC534F52DC53B
:1046200035F564C636F565C637F566C638F567C62E
:1046300039F585EC33F0D8A020EF23F022EF23F0FA
:1046400058EF23F0600E156E420E166EA20E176E16
:104650000D0E186E88C611F589C612F58AC613F5B7
:104660008BC614F59CEC2CF011C5A4F612C5A5F66A
:1046700013C5A6F614C5A7F6A4C611F5A5C612F56E
:10468000A6C613F5A7C614F5600E156E420E166E7B
:10469000A20E176E0D0E186E9CEC2CF011C584F551
:1046A00012C585F513C586F514C587F5DBEF27F030
:1046B000FF0E0601AC152C6FFF0EAD152D6FFF0E12
:1046C000AE152E6F7F0EAF152F6F170E4B6E2CC6CB
:1046D0004CF52DC64DF52EC64EF52FC64FF54B6643
:1046E00074EF23F07CEF23F04F344F324E324D32D3
:1046F0004C324B2E6FEF23F0810E4C240601A06F3D
:10470000FF0E4D20A16FFF0E4E20A26FFF0E4F2017
:10471000A36F000E7C6F000E7D6F000E7E6F000E8B
:104720007F6F2FBFA0EF23F02C05000E2D59000E38
:104730002E593F0E2F59D8A0A0EF23F0A2EF23F05F
:1047400082EF24F0A0C64BF5010E4B26000E4C6EF6
:10475000000E4D6E800E4E6E000E4F6E4B66B3EF28
:1047600023F0BBEF23F04F344F324E324D324C32F8
:104770004B2EAEEF23F00601AC514C247C6FAD51B3
:104780004D207D6FAE514E207E6FAF514F207F6F19
:10479000810E4B6EFF0E4C6EFF0E4D6EFF0E4E6E79
:1047A000170E4F6E7CC650F57DC651F57EC652F58C
:1047B0007FC653F54F66DFEF23F0E7EF23F0533466
:1047C00053325232513250324F2EDAEF23F05050E2
:1047D0004B240601A06F000E4C20A16F000E4D204F
:1047E000A26F000E4E20A36FA0C64BF5FF0E4C6EBD
:1047F000FF0E4D6E7F0E4E6E000E4F6E4B6603EF3A
:1048000024F00BEF24F04F344F324E324D324C3205
:104810004B2EFEEF23F04C1C506E4D1C516E4E1C67
:10482000526E4F1C536E06017C515014B86F7D516F
:104830005114B96F7E515214BA6F7F515314BB6F2C
:10484000B8C6B0F6B9C6B1F6BAC6B2F6BBC6B3F6CC
:10485000A05117084B6EFF0E7C154C6EFF0E7D1598
:104860004D6E7F0E7E154E6E000E7F154F6E000E44
:104870004C10506E000E4D10516E800E4E10526E48
:10488000000E4F10536E4B6648EF24F050EF24F0AB
:10489000533453325232513250324B2E43EF24F0C4
:1048A00050C57CF651C57DF652C57EF653C57FF6E0
:1048B0000601AFBF60EF24F05EEF24F068EF24F054
:1048C0007F1F7E1F7D1F7C6D000E7D237E237F2337
:1048D0009CC62AF59DC62BF59EC62CF59FC62DF5C8
:1048E000B0C62EF5B1C62FF5B2C630F5B3C631F558
:1048F00015EC35F02AC59CF62BC59DF62CC59EF609
:104900002DC59FF664C601F565C602F566C603F5BA
:1049100067C604F59CC605F59DC606F59EC607F557
:104920009FC608F53CEC2AF001C5B0F602C5B1F609
:1049300003C5B2F604C5B3F6B0C6B8F6B1C6B9F64B
:10494000B2C6BAF6B3C6BBF6B8C690F6B9C691F60B
:10495000BAC692F6BBC693F6000E06019015B86F64
:10496000800E9115B96FFF0E9215BA6FFF0E931559
:10497000BB6FB8C6B0F6B9C6B1F6BAC6B2F6BBC61A
:10498000B3F6B0C611F5B1C612F5B2C613F5B3C68B
:1049900014F5000E156E720E166E310E176E3F0E68
:1049A000186E9CEC2CF011C574F612C575F613C583
:1049B00076F614C577F69CC62EF59DC62FF59EC6D5
:1049C00030F59FC631F5B0C62AF5B1C62BF5B2C693
:1049D0002CF5B3C62DF515EC35F02AC594F62BC58C
:1049E00095F62CC596F62DC597F6180E156E720E17
:1049F000166E310E176E3F0E186E94C62EF595C6C4
:104A00002FF596C630F597C631F564C62AF565C60A
:104A10002BF566C62CF567C62DF515EC35F02AC5C5
:104A200011F52BC512F52CC513F52DC514F59CEC0D
:104A30002CF011C514F612C515F613C516F614C5DB
:104A400017F614C601F515C602F516C603F517C606
:104A500004F58C0E156EBE0E166EBF0E176E350E5B
:104A6000186EB0C611F5B1C612F5B2C613F5B3C6CD
:104A700014F59CEC2CF011C505F512C506F513C50F
:104A800007F514C508F53CEC2AF001C578F602C517
:104A900079F603C57AF604C57BF674C601F575C6CA
:104AA00002F576C603F577C604F578C605F579C62E
:104AB00006F57AC607F57BC608F53CEC2AF001C579
:104AC000B4F602C5B5F603C5B6F604C5B7F674C6A6
:104AD0002EF575C62FF576C630F577C631F5B4C616
:104AE0002AF5B5C62BF5B6C62CF5B7C62DF515ECCF
:104AF00035F02AC594F62BC595F62CC596F62DC52E
:104B000097F678C62AF579C62BF57AC62CF57BC6BA
:104B10002DF594C62EF595C62FF596C630F597C699
:104B200031F515EC35F02AC544F62BC545F62CC5F4
:104B300046F62DC547F6B4C611F5B5C612F5B6C68C
:104B400013F5B7C614F5B4C615F5B5C616F5B6C651
:104B500017F5B7C618F59CEC2CF011C5B0F612C5C8
:104B6000B1F613C5B2F614C5B3F60E0E056EEA0E15
:104B7000066EDD0E076EB50E086E4C0E156EBB0E82
:104B8000166E310E176E330E186EB0C611F5B1C623
:104B900012F5B2C613F5B3C614F59CEC2CF011C592
:104BA00001F512C502F513C503F514C504F53CEC77
:104BB0002AF001C5A4F602C5A5F603C5A6F604C5EC
:104BC000A7F6550E056EB30E066E8A0E076E380EEA
:104BD000086EB0C615F5B1C616F5B2C617F5B3C660
:104BE00018F5A4C611F5A5C612F5A6C613F5A7C6F5
:104BF00014F59CEC2CF011C501F512C502F513C596
:104C000003F514C504F53CEC2AF001C554F602C5C1
:104C100055F603C556F604C557F6610E056E0B0E24
:104C2000066E360E076EBB0E086EB0C615F5B1C621
:104C300016F5B2C617F5B3C618F554C611F555C624
:104C400012F556C613F557C614F59CEC2CF011C599
:104C500001F512C502F513C503F514C504F53CECC6
:104C60002AF001C548F602C549F603C54AF604C54F
:104C70004BF6AB0E056EAA0E066E2A0E076E3E0EA2
:104C8000086EB0C615F5B1C616F5B2C617F5B3C6AF
:104C900018F548C611F549C612F54AC613F54BC6B4
:104CA00014F59CEC2CF011C501F512C502F513C5E5
:104CB00003F514C504F53CEC2AF001C538F602C52D
:104CC00039F603C53AF604C53BF6B4C62AF5B5C6AF
:104CD0002BF5B6C62CF5B7C62DF5B0C615F5B1C681
:104CE00016F5B2C617F5B3C618F538C611F539C6AC
:104CF00012F53AC613F53BC614F59CEC2CF011C521
:104D00002EF512C52FF513C530F514C531F515EC88
:104D100035F02AC580F62BC581F62CC582F62DC547
:104D200083F6000E056E000E066E000E076EC00EB6
:104D3000086E80C601F581C602F582C603F583C6FA
:104D400004F53CEC2AF001C536F502C537F503C57C
:104D500038F504C539F580C615F581C616F582C645
:104D600017F583C618F5B4C611F5B5C612F5B6C663
:104D700013F5B7C614F59CEC2CF011C532F512C52D
:104D800033F513C534F514C535F5B1EC2EF032C545
:104D90003CF633C53DF634C53EF635C53FF644C650
:104DA00005F545C606F546C607F547C608F544C6E7
:104DB00015F545C616F546C617F547C618F5B4C627
:104DC00011F5B5C612F5B6C613F5B7C614F59CECC9
:104DD0002CF011C501F512C502F513C503F514C574
:104DE00004F53CEC2AF001C518F602C519F603C516
:104DF0001AF604C51BF63CC62AF53DC62BF53EC681
:104E00002CF53FC62DF518C62EF519C62FF51AC676
:104E100030F51BC631F515EC35F02AC54CF62BC51F
:104E20004DF62CC54EF62DC54FF6B4C62EF5B5C6BB
:104E30002FF5B6C630F5B7C631F54CC62AF54DC6C6
:104E40002BF54EC62CF54FC62DF515EC35F02AC5C1
:104E500094F62BC595F62CC596F62DC597F6000E43
:104E60002A6E000E2B6E800E2C6E3F0E2D6E94C699
:104E70002EF595C62FF596C630F597C631F515EC8B
:104E800035F02AC5B4F62BC5B5F62CC5B6F62DC53A
:104E9000B7F6B4C6B8F6B5C6B9F6B6C6BAF6B7C66A
:104EA000BBF6B8C6ACF6B9C6ADF6BAC6AEF6BBC66A
:104EB000AFF67CC64BF57DC64CF57EC64DF57FC67C
:104EC0004EF5170ED8904B364C364D364E36E82EF2
:104ED00062EF27F04B500601AC274C50AD234D50EC
:104EE000AE234E50AF23170E4B6EACC64CF5ADC67D
:104EF0004DF5AEC64EF5AFC64FF54B6682EF27F0C7
:104F00008AEF27F04F344F324E324D324C324B2E17
:104F10007DEF27F04FBE99EF27F04F504E104D1008
:104F200006E14C04D8B097EF27F099EF27F0B1EFE6
:104F300027F0B4C62AF5B5C62BF5B6C62CF5B7C60C
:104F40002DF57CC62EF57DC62FF57EEC30F02AC5FA
:104F5000B4F62BC5B5F62CC5B6F62DC5B7F6C1EF20
:104F600027F0ACC6B8F6ADC6B9F6AEC6BAF6AFC64F
:104F7000BBF6B8C6B4F6B9C6B5F6BAC6B6F6BBC681
:104F8000B7F688C611F589C612F58AC613F58BC621
:104F900014F5B4C615F5B5C616F5B6C617F5B7C6F9
:104FA00018F59CEC2CF011C584F512C585F513C5D8
:104FB00086F514C587F512003EC568F53FC569F54D
:104FC00040C56AF541C56BF568C580F569C581F5D1
:104FD0006AC582F56BC583F5000E05018015426E2A
:104FE000000E8115436E800E8215446E7F0E831570
:104FF000456E800E441809E17F0E4518421043109B
:10500000D8A405EF28F007EF28F035EF28F03EC5CB
:1050100015F53FC516F540C517F541C518F53EC550
:1050200011F53FC512F540C513F541C514F59CECCB
:105030002CF011C501F512C502F513C503F514C511
:1050400004F53EC505F53FC506F540C507F541C564
:1050500008F53CEC2AF001C53EF502C53FF503C555
:1050600040F504C541F53BEF2AF083BF44EF28F03B
:1050700083518211811106E18005D8B042EF28F0FA
:1050800044EF28F080EF28F0FF0E8015426EFF0EEF
:105090008115436EFF0E8215446E7F0E8315456E9B
:1050A0004250431044104510D8A459EF28F05BEF4C
:1050B00028F065EF28F03EC53EF53FC53FF540C5F9
:1050C00040F541C541F53BEF2AF083BF6CEF28F076
:1050D0006AEF28F080EF28F0000E5E6E210E5D6E04
:1050E0009D0E016E260E026EB7EC35F001C53EF541
:1050F00002C53FF503C540F504C541F53BEF2AF075
:10510000170E426E80C543F581C544F582C545F54D
:1051100083C546F542668FEF28F097EF28F04634B6
:105120004632453244324332422E8AEF28F043C59C
:1051300078F544C579F545C57AF546C57BF5050191
:10514000785179117A117B11D8A4A9EF28F0ABEF2F
:1051500028F0DBEF28F0000E646F000E656F000E84
:10516000666F000E676FC0EF28F0D89080378137E8
:1051700082378337010E6427000E65236623672379
:1051800082AFC5EF28F0C7EF28F0B5EF28F0FF0E8B
:105190006425426EFF0E6521436EFF0E6621446E4C
:1051A000FF0E6721456E4250785F4350795B445053
:1051B0007A5B45507B5B810E7827FF0E7923FF0ECB
:1051C0007A23FF0E7B23FF0E8015426EFF0E8115A2
:1051D000436E7F0E8215446E000E8315456E000EE1
:1051E0004210806F000E4310816F800E4410826F5A
:1051F000000E4510836F78A100EF29F002EF29F02F
:105200000AEF29F080518027815181238251822326
:10521000835183237B357B337A33793378338051E1
:105220008027815181238251822383518323000E61
:10523000606F000E616F000E626F000E636F60C5DD
:105240006CF561C56DF562C56EF563C56FF5000E51
:105250007C6F000E7D6F000E7E6F010E7F6F79EF09
:1052600029F060517C25706F61517D21716F625111
:105270007E21726F63517F21736F7051805D715118
:105280008159725182598351800A426E7351800A4A
:105290004258D8A04EEF29F050EF29F06CEF29F0DA
:1052A00070517C25606F71517D21616F72517E213B
:1052B000626F73517F21636F7051805F7151815BA9
:1052C0007251825B7351835B7C516C277D516D23DE
:1052D0007E516E237F516F2380518027815181231E
:1052E0008251822383518323D8907F337E337D3351
:1052F0007C337C517D117E117F11D8A482EF29F07F
:1053000084EF29F031EF29F080518111821183114E
:10531000D8B48DEF29F08FEF29F0F0EF29F0000ECF
:10532000746F000E756F800E766F3F0E776F74C5C9
:1053300032F575C533F576C534F577C535F5000E0C
:10534000366E000E376E800E386E3F0E396E85EC6D
:1053500033F0D8A0AEEF29F0B0EF29F0F0EF29F04C
:10536000000E0501746F000E756F800E766F3F0E94
:10537000776F000E326E000E336E800E346E3F0E6D
:10538000356E74C536F575C537F576C538F577C50C
:1053900039F585EC33F0D8B0D0EF29F0D2EF29F011
:1053A000DBEF29F0020E05016C27000E6D236E2342
:1053B0006F23F0EF29F0010E05016C15426E000E0F
:1053C0006D15436E000E6E15446E000E6F15456E22
:1053D00042506C2743506D2344506E2345506F2339
:1053E0006CC542F56DC543F56EC544F56FC545F511
:1053F00045344532443243324232000E42240501E4
:10540000806F000E4320816F000E4420826F3F0E9C
:105410004520836F78C542F579C543F57AC544F5D3
:105420007BC545F5170ED89042364336443645368F
:10543000E82E13EF2AF04250802743508123445036
:1054400082234550832380C568F581C569F582C5EF
:105450006AF583C56BF568C574F569C575F56AC5E8
:1054600076F56BC577F574C53EF575C53FF576C520
:1054700040F577C541F512000450800B0D6E0450C5
:1054800004240F6E03AE47EF2AF049EF2AF04AEFEB
:105490002AF00F800F50D8B450EF2AF052EF2AF0C4
:1054A00067EF2AF00F28D8A458EF2AF05AEF2AF015
:1054B00062EF2AF0000E016E000E026E000E036E07
:1054C000000E046E038E000E046E6FEF2AF0000EC5
:1054D000016E000E026E000E036E000E046E085088
:1054E000800B0E6E0D500E18D8B479EF2AF07BEFBA
:1054F0002AF07CEF2AF00D8C085008240E6E07AEBF
:1055000084EF2AF086EF2AF087EF2AF00E800E5003
:10551000D8B48DEF2AF08FEF2AF0A4EF2AF00E28EE
:10552000D8A495EF2AF097EF2AF09FEF2AF0000E0B
:10553000056E000E066E000E076E000E086E078EDA
:10554000000E086EACEF2AF0000E056E000E066E1F
:10555000000E076E000E086E0F500E5CD8B0B3EF51
:105560002AF0B5EF2AF0DCEF2AF00DACBAEF2AF002
:10557000BCEF2AF0BEEF2AF0800E0D1A0FC510F511
:105580000EC50FF510C50EF501C510F505C501F5E1
:1055900010C505F502C510F506C502F510C506F5DE
:1055A00003C510F507C503F510C507F504C510F5CB
:1055B00008C504F510C508F5000E106E0F500EC595
:1055C00009F50A6A095E000E0A5A0ABEF1EF2AF0CE
:1055D0000A5009E11A0E095CD8A0F1EF2AF0F3EFA6
:1055E0002AF02AEF2BF00150021003100410D8A467
:1055F000FCEF2AF0FFEF2AF0010E00EF2BF0000E77
:10560000106E000E016E000E026E000E036E000E94
:10561000046E0EC50FF533EF2BF010A012EF2BF038
:1056200014EF2BF01AEF2BF0D89010300109106E08
:105630001CEF2BF0D890103201A021EF2BF023EFBC
:105640002BF024EF2BF0108E04340432033202329C
:1056500001320F2A0E500F5CD8A031EF2BF033EF40
:105660002BF00DEF2BF00DBC38EF2BF03AEF2BF0B9
:105670007AEF2BF00F50D8A440EF2BF042EF2BF035
:105680004CEF2BF0000E016E000E026E000E036E4A
:10569000000E046E9BEF2CF00550012606500222EE
:1056A000075003220850042204A059EF2BF05BEFAF
:1056B0002BF007EF2CF010A060EF2BF062EF2BF037
:1056C00068EF2BF0D89010300109106E6AEF2BF0C4
:1056D000D890103201A06FEF2BF071EF2BF072EF2A
:1056E0002BF0108E043404320332023201320F2ABE
:1056F00007EF2CF00550015C065002580750035884
:105700000450800A096E0850800A0958D8B08BEFFF
:105710002BF08DEF2BF0B8EF2BF00150055C096EEC
:10572000025006580A6E035007580B6E0450085872
:105730000C6EFF0E0924016EFF0E0A20026EFF0E92
:105740000B20036EFF0E0C20046E800E0D1A106CE1
:105750001050D8A4AEEF2BF0B0EF2BF0C0EF2BF031
:10576000010E0126000E022203220422C0EF2BF0BC
:105770000550015E0650025A0750035A0850045A59
:105780000150021003100410D8A4C9EF2BF0CBEF86
:105790002BF000EF2CF01050D8A4D1EF2BF0D3EF6A
:1057A0002BF000EF2CF0000E016E000E026E000ECA
:1057B000036E000E046E9BEF2CF0D890013602367B
:1057C0000336043610AEE7EF2BF0E9EF2BF0EAEFEB
:1057D0002BF0018010A0EFEF2BF0F1EF2BF0F5EFA5
:1057E0002BF0D8801036F7EF2BF0D89010360F50F2
:1057F000D8B4FDEF2BF0FFEF2BF000EF2CF00F06ED
:1058000003AE05EF2CF007EF2CF0DDEF2BF0000ED0
:105810000E6E10AE0EEF2CF010EF2CF028EF2CF0E7
:1058200010C509F57F0E0916D8B419EF2CF01BEF3F
:105830002CF01FEF2CF0010E0E6E28EF2CF001A0C3
:1058400024EF2CF026EF2CF028EF2CF01BEF2CF09F
:105850000E50D8B42EEF2CF030EF2CF05BEF2CF084
:10586000010E0126000E02220322042204A03BEFB7
:105870002CF03DEF2CF05BEF2CF001C509F502C5D3
:105880000AF503C50BF504C50CF50C340C320B32CC
:105890000A32093209C501F50AC502F50BC503F53F
:1058A0000CC504F50F28D8B458EF2CF05AEF2CF0A3
:1058B0005BEF2CF00F2A0F28D8B461EF2CF063EFC8
:1058C0002CF06BEF2CF00F50D8A469EF2CF06BEF9D
:1058D0002CF07DEF2CF0000E016E000E026E000E1B
:1058E000036E000E046E0F50D8A479EF2CF07BEFFE
:1058F0002CF07DEF2CF0000E0D6E0FA082EF2CF03F
:1059000084EF2CF087EF2CF0038E88EF2CF0039EB1
:10591000D8900F30046E0DAE90EF2CF092EF2CF07B
:1059200093EF2CF0048E01C501F502C502F503C505
:1059300003F504C504F512001450800B1D6E1450BD
:105940001424236E13AEA7EF2CF0A9EF2CF0AAEFCE
:105950002CF023802350D8B4B0EF2CF0B2EF2CF011
:10596000C5EF2CF02328D8A4B8EF2CF0BAEF2CF018
:10597000C2EF2CF0000E116E000E126E000E136EB0
:10598000000E146E138ECDEF2CF0000E116E000E73
:10599000126E000E136E000E146E1850800B1D1A3E
:1059A00018501824226E17AED8EF2CF0DAEF2CF036
:1059B000DBEF2CF022802250D8B4E1EF2CF0E3EFA3
:1059C0002CF0F6EF2CF02228D8A4E9EF2CF0EBEF26
:1059D0002CF0F3EF2CF0000E156E000E166E000E7C
:1059E000176E000E186E178EFEEF2CF0000E156E5F
:1059F000000E166E000E176E000E186E2250D8B4F0
:105A000004EF2DF006EF2DF00EEF2DF02350D8A46B
:105A10000CEF2DF00EEF2DF018EF2DF0000E116EA3
:105A2000000E126E000E136E000E146EB0EF2EF00C
:105A300017501102F3C428F5F4C429F528501E6E3E
:105A40001F6A206A216A2950246E256A266A276AFD
:105A500016501202F3C428F5F4C429F528501E2666
:105A6000000E1F222022212229502426000E25224A
:105A70002622272215501302F3C428F5F4C429F571
:105A800028501E26000E1F222022212229502426C3
:105A9000000E25222622272220C521F51FC520F52C
:105AA0001EC51FF51E6A15501202F3C428F5F4C472
:105AB00029F528501E2629501F22000E2022000EF4
:105AC000212216501102F3C428F5F4C429F52850F8
:105AD0001E2629501F22000E2022000E212220C542
:105AE00021F51FC520F51EC51FF51E6A15501102B0
:105AF000F3C428F5F4C429F528501E2629501F2286
:105B0000000E2022000E212217501202F3C428F5A5
:105B1000F4C429F52850242629502522000E2622D7
:105B2000000E272216501302F3C428F5F4C429F5F9
:105B30002850242629502522000E2622000E272236
:105B400017501302F3C428F5F4C429F52850196E30
:105B500029501A6E1B6A1C6A1BC51CF51AC51BF559
:105B600019C51AF5196A195024261A5025221B50F6
:105B700026221C5027221EC519F51FC51AF520C55F
:105B80001BF521C51CF5190ECBEF2DF0D8901C325A
:105B90001B321A321932E82EC6EF2DF01950242686
:105BA0001A5025221B5026221C50272220C521F5E1
:105BB0001FC520F51EC51FF51E6A225023C519F505
:105BC0001A6A1926000E1A22820E1924286EFF0E58
:105BD0001A20296E01EF2EF0D8902436253626366D
:105BE000273621AEF6EF2DF0F8EF2DF0F9EF2DF07E
:105BF0002480D8901E361F36203621362806D8A09D
:105C0000290626AE06EF2EF008EF2EF0ECEF2DF071
:105C1000000E226E21AE0FEF2EF011EF2EF035EFB9
:105C20002EF0FF0E1E14196EFF0E1F141A6EFF0EBB
:105C300020141B6E7F0E21141C6E19501A101B109D
:105C40001C10D8B426EF2EF028EF2EF02CEF2EF0FB
:105C5000010E226E35EF2EF024A031EF2EF033EF3F
:105C60002EF035EF2EF028EF2EF02250D8B43BEF77
:105C70002EF03DEF2EF061EF2EF0010E2426000EE7
:105C800025222622272227A048EF2EF04AEF2EF0C9
:105C900061EF2EF024C519F525C51AF526C51BF5AB
:105CA00027C51CF51C341C321B321A32193219C597
:105CB00024F51AC525F51BC526F51CC527F5284A68
:105CC000292A29BE6CEF2EF0295008E12828D8A0F7
:105CD0006CEF2EF06EEF2EF078EF2EF0000E246EAB
:105CE000000E256E800E266E7F0E276EA6EF2EF01C
:105CF00029BE85EF2EF0295006E12804D8B083EFA5
:105D00002EF085EF2EF091EF2EF0000E246E000E97
:105D1000256E000E266E000E276E000E1D6EA6EF7D
:105D20002EF028C523F5FF0E2416FF0E25167F0E34
:105D30002616000E271623A0A0EF2EF0A2EF2EF0BD
:105D4000A3EF2EF0268ED8902330276E1D502712F9
:105D500024C511F525C512F526C513F527C514F57B
:105D600012003550800B426E35503524496E34AEEA
:105D7000BCEF2EF0BEEF2EF0BFEF2EF04980495061
:105D8000D8B4C5EF2EF0C7EF2EF0DCEF2EF0492887
:105D9000D8A4CDEF2EF0CFEF2EF0D7EF2EF0000EDF
:105DA000326E000E336E000E346E000E356E348E81
:105DB000000E356EE4EF2EF0000E326E000E336EE4
:105DC000000E346E000E356E3950800B421A395079
:105DD00039244A6E38AEEFEF2EF0F1EF2EF0F2EFED
:105DE0002EF04A804A50D8B4F8EF2EF0FAEF2EF099
:105DF0000FEF2FF04A28D8A400EF2FF002EF2FF07A
:105E00000AEF2FF0000E366E000E376E000E386E61
:105E1000000E396E388E000E396E17EF2FF0000E1F
:105E2000366E000E376E000E386E000E396E36502C
:105E3000371038103910D8A420EF2FF022EF2FF0B0
:105E40003AEF2FF0000E326E000E336E000E346EFD
:105E5000000E356E800E34127F0E35124250351210
:105E600032C532F533C533F534C534F535C535F5AE
:105E70007DEF30F04950D8A440EF2FF042EF2FF0E3
:105E80004CEF2FF0000E326E000E336E000E346EAB
:105E9000000E356E7DEF30F04A5049C53AF53B6A49
:105EA0003A5E000E3B5A7F0E3A24436E000E3B20B2
:105EB000446E32C53EF533C53FF534C540F535C5B2
:105EC00041F5000E326E000E336E000E346E000E81
:105ED000356E000E456E000E466E000E476E000ECB
:105EE000486E000E4A6EADEF2FF04A50D8B47BEFEB
:105EF0002FF07DEF2FF094EF2FF0D8903E363F3605
:105F000040364136D890323633363436353648AEA0
:105F10008CEF2FF08EEF2FF08FEF2FF03280D89094
:105F2000453646364736483636503E5C37503F5841
:105F30003850405839504158D8A0A1EF2FF0A3EF66
:105F40002FF0ACEF2FF0488C36503E5E37503F5A62
:105F50003850405A3950415A4A2A190E4A64B3EF10
:105F60002FF0B5EF2FF075EF2FF03E503F1040109F
:105F70004110D8B4BEEF2FF0C0EF2FF0D8EF2FF0C4
:105F80004580D8EF2FF0D890323633363436353658
:105F900048AECDEF2FF0CFEF2FF0D0EF2FF03280C3
:105FA000D89045364636473648364306D8A044068C
:105FB00034AEDDEF2FF0DFEF2FF0C3EF2FF0000E48
:105FC0004A6E48AEE6EF2FF0E8EF2FF00CEF30F01E
:105FD000FF0E45143A6EFF0E46143B6EFF0E47143B
:105FE0003C6E7F0E48143D6E3A503B103C103D1005
:105FF000D8B4FDEF2FF0FFEF2FF003EF30F0010EDC
:106000004A6E0CEF30F032A008EF30F00AEF30F0BB
:106010000CEF30F0FFEF2FF04A50D8B412EF30F011
:1060200014EF30F038EF30F0010E3226000E33223C
:106030003422352235A01FEF30F021EF30F038EF59
:1060400030F032C53AF533C53BF534C53CF535C5BE
:106050003DF53D343D323C323B323A323AC532F5C1
:106060003BC533F53CC534F53DC535F5434A442AB7
:1060700044BE43EF30F0445008E14328D8A043EF3A
:1060800030F045EF30F050EF30F0000E446E4368D2
:10609000000E326E000E336E000E346E000E356E42
:1060A00044BE5DEF30F0445006E14304D8B05BEFEE
:1060B00030F05DEF30F06BEF30F0000E446E000E0C
:1060C000436E000E326E000E336E000E346E000E04
:1060D000356E000E426E43C549F549A072EF30F0AF
:1060E00074EF30F077EF30F0348E78EF30F0349E8C
:1060F000D8904930356E2EEF2FF012002AC538F5B2
:106100002BC539F52CC53AF52DC53BF52FBE92EFC1
:1061100030F02F5009E1800E2E5CD8A092EF30F0C5
:1061200094EF30F0F2EF30F038C511F539C512F5C3
:106130003AC513F53BC514F5000E156E000E166E2C
:10614000000E176E7F0E186E9CEC2CF011C538F502
:1061500012C539F513C53AF514C53BF5810E2E2647
:10616000FF0E2F222FBEBEEF30F02F5009E1800E20
:106170002E5CD8A0BEEF30F0C0EF30F05CEF31F015
:1061800038C511F539C512F53AC513F53BC514F5F7
:10619000000E156E000E166E000E176E7F0E186E36
:1061A0009CEC2CF011C538F512C539F513C53AF53C
:1061B00014C53BF5810E2E26FF0E2F222FBEEAEFCF
:1061C00030F02F5009E1800E2E5CD8A0EAEF30F0BD
:1061D000ECEF30F05CEF31F0000E2F6E7F0E2E6E84
:1061E0005CEF31F02FAEFEEF30F0820E2E5CFF0E32
:1061F0002F58D8B0FEEF30F000EF31F05CEF31F007
:1062000038C511F539C512F53AC513F53BC514F576
:10621000000E156E000E166E800E176E0C0E186EA8
:106220009CEC2CF011C538F512C539F513C53AF5BB
:1062300014C53BF5660E2E26000E2F222FAE2AEF38
:1062400031F0820E2E5CFF0E2F58D8B02AEF31F0BD
:106250002CEF31F05CEF31F038C511F539C512F58E
:106260003AC513F53BC514F5000E156E000E166EFB
:10627000800E176E0C0E186E9CEC2CF011C538F5C4
:1062800012C539F513C53AF514C53BF5660E2E2631
:10629000000E2F222FAE56EF31F0820E2E5CFF0E35
:1062A0002F58D8B056EF31F058EF31F05CEF31F0A5
:1062B000FF0E2F6E820E2E6E7F0E2E24306E000E7D
:1062C0002F20316E326A336A170ED890303631364D
:1062D00032363336E82E65EF31F030C534F531C54E
:1062E00035F532C536F533C537F534C511F535C545
:1062F00012F536C513F537C514F538C515F539C58A
:1063000016F53AC517F53BC518F59CEC2CF011C5F0
:106310002AF512C52BF513C52CF514C52DF52AC584
:106320002AF52BC52BF52CC52CF52DC52DF5120006
:10633000096E0950D8B49FEF31F0A1EF31F0C3EFEF
:1063400031F004BEA8EF31F0A6EF31F0C3EF31F029
:1063500001C505F502C506F503C507F504C508F531
:10636000051E061E071E081E052A000E062207220D
:10637000082205C50BF506C50CF507C50DF508C5C2
:106380000EF5CBEF31F001C50BF502C50CF503C5D9
:106390000DF504C50EF50150021003100410D8A429
:1063A000D4EF31F0D6EF31F0E0EF31F0000E016EB6
:1063B000000E026E000E036E000E046E71EF32F0DE
:1063C000960E0A6EEAEF31F00A2AD8900E320D329C
:1063D0000C320B32000E0B14056E000E0C14066E00
:1063E000000E0D14076EFE0E0E14086E05500610FA
:1063F00007100810D8A4FFEF31F001EF32F0E4EFFE
:1064000031F00FEF32F00A2A010E0B26000E0C229B
:106410000D220E22D8900E320D320C320B32000EAD
:106420000B14056E000E0C14066E000E0D14076E94
:10643000FF0E0E14086E0550061007100810D8A4A1
:1064400024EF32F026EF32F003EF32F02EEF32F08D
:106450000A06D8900B360C360D360E360DBE33EFCD
:1064600032F035EF32F03DEF32F0020E0A603BEFD2
:1064700032F03DEF32F028EF32F00AB042EF32F066
:1064800044EF32F045EF32F00D9ED8900A320AC543
:1064900005F5066A076A086A05C508F5076A066A07
:1064A000056A05500B1206500C1207500D120850C9
:1064B0000E120950D8B45FEF32F061EF32F069EF9D
:1064C00032F004BE68EF32F066EF32F069EF32F07E
:1064D0000E8E0BC501F50CC502F50DC503F50EC5F5
:1064E00004F5120004EC36F0F7EC35F0000E05016F
:1064F000966FC788000E956FC182C184C190140E3B
:10650000906F000EE4EC34F0CFB889EF32F08BEFEF
:1065100032F0EBEF32F005019551D8A492EF32F052
:1065200094EF32F0EBEF32F0C182C184000E906F35
:10653000000EE4EC34F0C192C194D6EF32F09651E3
:10654000016E026A036A046A000E98EC31F001C51C
:1065500091F502C592F503C593F504C594F5C80EEF
:106560000501906F91C588F592C589F593C58AF5A7
:1065700094C58BF5000E846F000E856F000E866F3C
:10658000400E876F50EC13F084C58CF585C58DF5F2
:1065900086C58EF587C58FF501EC33F005018C516A
:1065A000E4EC34F00501962B22EC36F0070E0501E1
:1065B0009665DDEF32F0DFEF32F09FEF32F0000E44
:1065C000906FFF0EE4EC34F0C192C194000E05010F
:1065D000966F84EF32F0CFA8F0EF32F0F2EF32F0A6
:1065E00084EF32F005019505D8A4F9EF32F0FBEF06
:1065F00032F084EF32F0000E956F84EF32F00DEF41
:1066000000F005018E358F35596E5950D8A40BEF27
:1066100033F00DEF33F017EF33F0000E8C6F000EF8
:106620008D6F000E8E6F000E8F6F84EF33F08CC570
:1066300054F58DC555F58EC556F58FC557F5200E09
:1066400027EF33F0D8905732563255325432E82E75
:1066500022EF33F05450586E8E8FFF0E8C17FF0EC2
:106660008D17FF0E8E17000E8F17960E595E59BEAE
:106670003EEF33F03CEF33F054EF33F05950800AE3
:10668000970FD8B046EF33F048EF33F04AEF33F0CE
:106690000DEF33F0D8908F338E338D338C33593EDA
:1066A0004AEF33F06CEF33F01F0E59645AEF33F0BA
:1066B0005CEF33F064EF33F00DEF33F0D8908C37AC
:1066C0008D378E378F3759065950D8A46AEF33F07B
:1066D0006CEF33F05EEF33F05850D8B472EF33F014
:1066E00074EF33F07CEF33F08F1F8E1F8D1F8C6D96
:1066F000000E8D238E238F238CC58CF58DC58DF5D3
:106700008EC58EF58FC58FF51200000E32143A6ECD
:10671000000E33143B6E800E34143C6E7F0E351425
:106720003D6E3A503B103C103D10D8A49AEF33F028
:106730009CEF33F0A4EF33F0000E326E000E336E98
:10674000000E346E000E356E000E36143A6E000EDA
:1067500037143B6E800E38143C6E7F0E39143D6E3C
:106760003A503B103C103D10D8A4B9EF33F0BBEFCA
:1067700033F0C3EF33F0000E366E000E376E000EAE
:10678000386E000E396E35AEC8EF33F0CAEF33F015
:10679000D3EF33F0326C331ED8B0332A341ED8B066
:1067A000342A800E355639AED8EF33F0DAEF33F0B5
:1067B000E3EF33F0366C371ED8B0372A381ED8B026
:1067C000382A800E3956000E321A000E331A000E87
:1067D000341A800E351A000E361A000E371A000EC3
:1067E000381A800E391A3650325C375033583850C8
:1067F000345839503558D8B000EF34F002EF34F047
:1068000005EF34F0D89006EF34F0D8801200000E77
:10681000BE6E000EBF6E000EC06E060EC16E000E84
:10682000C26E000EC36EC668C768DF0EC86EF80E73
:10683000C96E0F0ECA6ECB6804010069EF0E086FB7
:10684000C70E106FF80E186F070E206F2869000E24
:10685000016F100E096F000E116F000E196F000E00
:10686000216F000E296F000E026F000E0A6F000EDE
:10687000126F000E1A6F000E226F000E2A6F03694E
:106880000B6913691B69070E236F2B6904690C6977
:1068900014691C690F0E246F2C69000E0201896FA8
:1068A000000E886F000E876F000E866F140E6B6FE0
:1068B000320E166F130E6A6F310E146F000E040144
:1068C000056F000E066F000E076F000E0D6F000EB5
:1068D0000E6F000E0F6F000E156F000E166F000E7C
:1068E000176F000E256F000E266F000E276F120027
:1068F000026E000184BF7FEF34F081EF34F0E3EFEC
:1069000034F00250050D2C0EF324F66E260EF42002
:10691000F76EF86A000EF8220800F5C484F0025001
:10692000050D010EF326000EF4222C0EF324F66E54
:10693000260EF420F76EF86A000EF8220800F5C45F
:1069400085F00250050D020EF326000EF4222C0EE7
:10695000F324F66E260EF420F76EF86A000EF82285
:106960000800F5500309866F000E8C6F0250050D6C
:10697000030EF326000EF4222C0EF324F66E260EE0
:10698000F420F76EF86A000EF8220800F5C489F0CA
:106990000250050D040EF326000EF4222C0EF324F3
:1069A000F66E260EF420F76EF86A000EF822080044
:1069B000F5C401F5014601460146C8500118F70B20
:1069C0000118C86E848F12005A6E000E5C6E010EA4
:1069D0005B6E000E78EC34F05A50D9EC35F022ECB6
:1069E00036F0000E026E050E016E8EEC35F0C180A1
:1069F000000E026E140E016E8EEC35F0C19090C543
:106A000001F5026A8EEC35F05B4A5C2A5CBE12EF3F
:106A100035F05C5009E1090E5B5CD8A012EF35F04F
:106A200014EF35F0E9EF34F01200000E2E1A000ECC
:106A30002F1A000E301A800E311A2AC501F52BC507
:106A400002F52CC503F52DC504F52EC505F52FC59A
:106A500006F530C507F531C508F53CEC2AF001C54F
:106A60002AF502C52BF503C52CF504C52DF512003A
:106A7000D69AAF90D680000E016E000E026E000E08
:106A8000036E1BEC36F0B490D682000E016E000E41
:106A9000026E000E036E14EC36F0B890D684000E31
:106AA000016E000E026E000E036E0DEC36F0120049
:106AB0000150021003100410D8B461EF35F063EFF9
:106AC00035F06BEF35F0000E011A000E021A000EC1
:106AD000031A800E041A01C501F502C502F503C5AB
:106AE00003F504C504F51200A0C505F5A1C506F51A
:106AF000A2C507F5A3C508F501C505F502C506F54C
:106B000003C507F504C508F5089E05C501F506C5CA
:106B100002F507C503F508C504F5120098EF35F036
:106B2000150E036EC60EE82EFED7032EFCD700D03E
:106B30000106D8A00206012806E10228D8A4A3EF86
:106B400035F0A5EF35F090EF35F012000501A36B9D
:106B5000A26BA16BA06B5E6A5D6A0401080E5D6F9B
:106B6000000E5E6F000E5F6F000172EF32F0FF0EDD
:106B7000056EFF0E066EFF0E076E7F0E086E05C5D2
:106B800001F506C502F507C503F508C504F51200B1
:106B90009EAECDEF35F0CFEF35F0D8EF35F0AEAE9D
:106BA000D4EF35F0D6EF35F0D8EF35F025EC36F0F0
:106BB0001100016E010E0001826F01C581F0B1A0CC
:106BC000E4EF35F0E6EF35F0DFEF35F0000180510E
:106BD0001200600E0001AD6F000EAF6F000EB36FBC
:106BE000080EB16F000EB06F000EAC6F1200400EB9
:106BF0000001856F000E866F010E8C6F0F0E896F7E
:106C0000C896020E846F1200E9EC35F007EC34F000
:106C1000F7EC35F038EC35F0120001C597F502C5F8
:106C200098F503C599F5120001C59AF502C59BF5C3
:106C300003C59CF5120001C59DF502C59EF503C56F
:0C6C40009FF512000001849F120012005A
:020000040030CA
:08000000FFFFF7FF9FFFFFFF68
:01000900FFF7
:00000001FF
